:020000040800F2
:10000000A8060020B9060008150700081507000813
:100010001507000815070008150700080000000074
:1000200000000000000000000000000015070008AC
:100030001507000800000000150700081D1500083E
:100040001507000815070008150700081507000820
:100050001507000815070008150700081507000810
:100060001507000815070008150700081507000800
:1000700015070008150700081507000815070008F0
:1000800015070008150700081507000815070008E0
:1000900015070008150700081507000815070008D0
:1000A00015070008150700081507000815070008C0
:1000B00015070008150700081507000815070008B0
:1000C00015070008150700081507000815070008A0
:1000D0001507000815070008150700081507000890
:1000E0001507000815070008150700081507000880
:1000F0001507000815070008150700081507000870
:10010000150700081507000815070008150700085F
:10011000150700081507000815070008150700084F
:10012000150700081507000815070008150700083F
:100130005FF808F180B500AF00F008F800F022F891
:1001400001F0A4F900F04CF880BD00BF80B582B08A
:1001500000AF0820012100F061FE0120012100F024
:100160005DFEC023BB800323BB711C23FB713B1DC1
:100170000348194600F0D2FA0837BD4680BD00BFDB
:10018000000C014080B584B000AF4FF40010012195
:1001900000F062FE104800F029FF0023BB804BF600
:1001A000FF73FB8030233B814FF480637B814FF4EE
:1001B0008043BB81094B3B603B460748194600F032
:1001C00037FF0548012100F0F5FF0348012101F048
:1001D00051F81037BD4680BD00540040A086010094
:1001E00080B500AF054B00221A60054B00221A6053
:1001F0000F2001F07FF900F003F980BD58020020C4
:100200006002002080B582B000AF03460A46FB7151
:100210001346BB8000BF2D484FF4003101F0B6F803
:100220000346002BF7D12948012101F023F8274884
:10023000012100F0DFFF00BF2448254901F076F8D6
:100240000346002BF8D021488021002201F050F80D
:1002500000BF1E481F4901F069F80346002BF8D083
:100260001A48012100F0A6FFFB791848194601F051
:1002700021F800BF1548184901F058F80346002B33
:10028000F8D0BB881B0A9BB2DBB21048194601F0BC
:1002900011F800BF0D48104901F048F80346002B43
:1002A000F8D0BB88DBB20948194601F003F800BF5B
:1002B0000648094901F03AF80346002BF8D00348F4
:1002C000012100F0B7FF0837BD4680BD0054004053
:1002D00001000300820007008400070080B582B09F
:1002E00000AF03463960FB7100BF3F484FF4003157
:1002F00001F04CF80346002BF7D13B48012100F0F8
:10030000B9FF3948012100F075FF00BF3648374971
:1003100001F00CF80346002BF8D03348802100226E
:1003200000F0E6FF00BF3048314900F0FFFF034610
:10033000002BF8D0FB792C48194600F0BBFF00BF1A
:1003400029482C4900F0F2FF0346002BF8D026483C
:10035000012100F04FFF00BF2348244900F0E6FFD1
:100360000346002BF8D020488021012200F0C0FF76
:1003700000BF1D48204900F0D9FF0346002BF8D0EC
:1003800000BF19481D4900F0D1FF0346002BF8D0EB
:10039000154800F09FFF03469BB21B029AB23B68D0
:1003A0001A801148002100F065FF0F48012100F07C
:1003B00041FF00BF0C48114900F0B8FF0346002B75
:1003C000F8D0094800F086FF03469AB23B681B88C4
:1003D00013439AB23B681A800348012100F04AFF98
:1003E0000837BD4680BD00BF005400400100030037
:1003F00082000700840007000200030040000300A1
:1004000080B584B000AF4FF40053BB804FF4C053AD
:10041000FB804FF480633B811823BB720723FB7280
:100420000D4B4FF480521A600C4B0A221A600C4B91
:1004300002221A60084B1B689BB205201946FFF781
:10044000E1FE43F61F43FB81FB8900201946FFF7BD
:10045000D9FE1037BD4680BD64020020580200203E
:100460006002002080B582B000AFBB1D022019469B
:10047000FFF734FFFB88DB089BB29B009BB29BB26B
:100480001BB218460837BD4680BD00BF80B582B09C
:1004900000AF094B1B689BB205201946FFF7B2FE5F
:1004A000BB1D04201946FFF719FFFB889BB21BB246
:1004B00018460837BD4680BD6402002000000000D9
:1004C00080B582B000AFFFF7CDFF0346FB80B7F9E0
:1004D0000630184601F08EFA02460B4610461946C1
:1004E00007A3D3E9002301F0EBFA02460B461046BE
:1004F000194601F0F7FC034618460837BD4680BD93
:10050000FCA9F1D24D62503F80B582B000AFFFF739
:10051000BDFF0346184601F0EFFD03467B60084B24
:100520001B68184601F0E4FD03467868194601F09F
:10053000EBFE03467B607B6818460837BD4680BDEE
:100540005802002080B500AF154A154B1B6843F0D8
:10055000010313601249124B5A68124B13404B604F
:100560000F4A0F4B1B6823F0847323F4803313600E
:100570000B4A0B4B1B6823F480231360084A084B7B
:100580005B6823F4FE035360054B4FF41F029A602F
:1005900000F00CF8044B4FF000629A6080BD00BF81
:1005A000001002400000FFF800ED00E080B500AF51
:1005B00000F002F880BD00BF80B483B000AF00231C
:1005C0007B6000233B603A4A394B1B6843F480331D
:1005D0001360374B1B6803F400333B607B680133C7
:1005E0007B603B68002B03D17B68B3F5A06FF0D133
:1005F0002F4B1B6803F40033002B02D001233B6018
:1006000001E000233B603B68012B4BD1294A294B79
:100610001B6843F010031360264A264B1B6823F027
:1006200003031360234A234B1B6843F00203136048
:100630001F4A1F4B5B6853601D4A1D4B5B6853602C
:100640001B4A1B4B5B6843F480635360184A184B8A
:100650005B6823F47C135360154A154B5B6843F4C5
:10066000E8135360124A124B1B6843F08073136007
:1006700000BF0F4B1B6803F00073002BF9D00C4A2E
:100680000B4B5B6823F003035360094A084B5B681C
:1006900043F00203536000BF054B5B6803F00C039B
:1006A000082BF9D10C37BD465DF8047B704700BFBD
:1006B000001002400020024080B582B000AF104B15
:1006C0007B60104B3B6007E03B681A1D3A607A681C
:1006D000111D796012681A603B680B4A9342F3D38C
:1006E0000A480B494FF000028842B8BF40F8042B7B
:1006F000FADBFFF727FF00F0EDF80837BD4680BDB5
:10070000AC240008000000203C0200203C02002035
:10071000A802002080B400AFFEE700BF80B489B01B
:1007200000AF786039600023FB6100233B61002348
:10073000BB610023FB6000237B610023BB603B683F
:10074000DB7803F00F03FB613B68DB7803F01003F9
:10075000002B05D03B689B781A46FB691343FB616D
:100760003B681B88DBB2002B44D07B681B687B6135
:100770000023BB6138E0BB69012202FA03F3FB608E
:100780003B681B881A46FB6813403B613A69FB686B
:100790009A4226D1BB699B00FB60FB680F2202FADC
:1007A00003F3BB60BB68DB437A6913407B61FB6882
:1007B000FA6902FA03F37A6913437B613B68DB78D9
:1007C000282B05D1BB6901229A407B685A6108E059
:1007D0003B68DB78482B04D1BB6901229A407B68D7
:1007E0001A61BB690133BB61BB69072BC3D97B6845
:1007F0007A691A603B681B88FF2B4AD97B685B6863
:100800007B610023BB613EE0BB6908331A460123CC
:100810009340FB603B681B881A46FB6813403B61B2
:100820003A69FB689A422BD1BB699B00FB60FB686D
:100830000F2202FA03F3BB60BB68DB437A69134003
:100840007B61FB68FA6902FA03F37A6913437B61FF
:100850003B68DB78282B07D1BB6908331A46012394
:1008600003FA02F27B685A613B68DB78482B07D1B8
:10087000BB6908331A46012303FA02F27B681A6146
:10088000BB690133BB61BB69072BBDD97B687A6942
:100890005A602437BD465DF8047B704780B483B04E
:1008A00000AF78600B467B807A887B681A610C37D2
:1008B000BD465DF8047B704780B483B000AF7860BC
:1008C0000B467B807A887B685A610C37BD465DF8A1
:1008D000047B704780B500AFFFF734FEFFF72AFCBA
:1008E00000F06CF800F0B4F80020002100F0CCF823
:1008F0002C4800F013F90020012100F0C5F8FFF7A3
:10090000DFFD0246284B1A60274B1B68184600F093
:1009100043FE0246254B1A60244B1B68184600F024
:10092000FDF80020022100F0AFF8214800F0F6F8B1
:100930000020032100F0A8F8FFF7E6FD02461D4B5A
:100940001A601C4B1B68184600F026FE0246174B27
:100950001A60164B1B68184600F0E0F800200421CE
:1009600000F092F8144800F0D9F80020052100F0BA
:100970008BF80D4B1A680F4B1B681046194601F097
:100980000FFC0346184600F007FE0246074B1A60AC
:10099000064B1B68184600F0C1F84FF4967000F043
:1009A000A9FD9FE780240008680200207002002053
:1009B000902400086C020020A024000880B500AF3D
:1009C00000F0C2F800F0FCF820484FF40071FFF787
:1009D00065FF1E484FF48051FFF760FF1B484FF43E
:1009E0000041FFF75BFF19484FF40051FFF756FF36
:1009F00016484FF40061FFF751FF14484FF480612F
:100A0000FFF75AFF0A2000F075FD10484FF480618F
:100A1000FFF744FF0020212100F010F90020C02141
:100A200000F00CF90020142100F008F90020042146
:100A300000F004F90020202100F000F900F008F88F
:100A400000200C2100F0FAF880BD00BF000C01402E
:100A500080B582B000AF0023FB710FE00023BB71B3
:100A600006E00120002100F0E9F8BB790133BB71F9
:100A7000BB79532BF5D9FB790133FB71FB79052B3E
:100A8000ECD90837BD4680BD80B582B000AF0346C3
:100A90000A46FB711346BB71FB791A465200134498
:100AA0005B00FB71BB7943F04003DBB200201946C9
:100AB00000F0C4F8FB7963F07F03DBB20020194635
:100AC00000F0BCF80837BD4680BD00BF80B584B0DB
:100AD00000AF0346FB710023BB73FB79203BFB7126
:100AE0000023FB7312E0FA79F97B0B4813465B0095
:100AF00013445B000B4403441B78BB73BB7B012096
:100B0000194600F09BF8FB7B0133FB73FB7B052B45
:100B1000E9D91037BD4680BD0000002080B584B003
:100B200000AF786009E07B681B78FB73FB7B18469D
:100B3000FFF7CCFF7B6801337B607B681B78002B61
:100B4000F1D11037BD4680BD80B582B000AF08201E
:100B5000012100F063F94FF40073BB800323BB71E4
:100B60001023FB713B1D15481946FFF7D7FD4FF4C5
:100B70008063BB800323BB711023FB713B1D0F48B7
:100B80001946FFF7CBFD4FF40063BB800323BB7115
:100B90001023FB713B1D09481946FFF7BFFD4FF4B9
:100BA0008053BB800323BB711023FB713B1D0348A3
:100BB0001946FFF7B3FD0837BD4680BD000C014064
:100BC00080B586B000AF0820012100F027F94FF46E
:100BD0008040012100F040F94FF46043BB820223C2
:100BE000BB751823FB7507F1140312481946FFF76C
:100BF00095FD4FF440433B804FF482737B8000238C
:100C0000BB800223FB8001233B814FF400737B8177
:100C10001023BB810023FB8107233B823B46064810
:100C2000194600F055F90448012100F095F91837EC
:100C3000BD4680BD000C01400038004080B582B048
:100C400000AF03460A46FB711346BB7118484FF4C8
:100C50000061FFF731FEFB79002B05D114484FF4FA
:100C60008051FFF729FE04E011484FF48051FFF74F
:100C700015FE00BF0F48022100F09CF90346002B2F
:100C8000F8D0BB799BB20B48194600F085F900BF3C
:100C90000848022100F08EF90346002BF8D00448E2
:100CA0004FF40061FFF7FAFD0837BD4680BD00BF75
:100CB000000C01400038004080B487B000AF78607D
:100CC00000237B6100233B610023FB600023BB60AA
:100CD0004D4B5B6803F00C037B617B69042B07D0F1
:100CE000082B09D0002B34D17B68484A1A6034E0C5
:100CF0007B68464A1A6030E0434B5B6803F470132C
:100D00003B61414B5B6803F48033FB603B699B0CA8
:100D100002333B61FB68002B06D13B693C4A02FB76
:100D200003F27B681A6013E0374B5B6803F400330F
:100D3000002B06D03B69364A02FB03F27B681A603F
:100D400006E03B69314A02FB03F27B681A6004E06B
:100D500003E07B682D4A1A6000BF2B4B5B6803F0F1
:100D6000F0037B617B691B097B612A4A7B69134421
:100D70001B78DBB2BB607B681A68BB68DA407B68B3
:100D80005A60214B5B6803F4E0637B617B691B0A5B
:100D90007B61204A7B6913441B78DBB2BB607B68B4
:100DA0005A68BB68DA407B689A60174B5B6803F44B
:100DB00060537B617B69DB0A7B61164A7B69134464
:100DC0001B78DBB2BB607B685A68BB68DA407B6823
:100DD000DA600D4B5B6803F440437B617B699B0BDE
:100DE0007B610D4A7B6913441B78DBB2BB607B6877
:100DF000DA68BB68B2FBF3F27B681A611C37BD4648
:100E00005DF8047B704700BF0010024000127A00BA
:100E100000093D00280200203802002080B483B081
:100E200000AF78600B46FB70FB78002B06D00949B9
:100E3000084B9A697B6813438B6106E00549054BB3
:100E40009A697B68DB4313408B610C37BD465DF8C4
:100E5000047B70470010024080B483B000AF78601C
:100E60000B46FB70FB78002B06D00949084BDA696A
:100E70007B681343CB6106E00549054BDA697B6863
:100E8000DB431340CB610C37BD465DF8047B7047F4
:100E90000010024080B483B000AF78600B46FB7056
:100EA000FB78002B06D00949084B1A697B6813436D
:100EB0000B6106E00549054B1A697B68DB4313406B
:100EC0000B610C37BD465DF8047B70470010024093
:100ED00080B485B000AF786039600023FB817B6807
:100EE0001B88FB81FB8903F44153FB813B681A8813
:100EF0003B685B8813439AB23B689B8813439AB262
:100F00003B68DB8813439AB23B681B8913439AB250
:100F10003B685B8913439AB23B689B8913439AB23F
:100F20003B68DB8913439AB2FB891343FB817B68DF
:100F3000FA891A807B689B8B9BB223F400639AB278
:100F40007B689A833B681A8A7B681A821437BD468D
:100F50005DF8047B704700BF80B483B000AF786059
:100F60000B46FB70FB78002B08D07B681B889BB27C
:100F700043F040039AB27B681A8007E07B681B88C5
:100F80009BB223F040039AB27B681A800C37BD46AF
:100F90005DF8047B704700BF80B483B000AF786019
:100FA0000B467B807B687A889A810C37BD465DF85A
:100FB000047B704780B485B000AF78600B467B80BF
:100FC0000023FB737B681B899AB27B8813409BB21A
:100FD000002B02D00123FB7301E00023FB73FB7B9A
:100FE00018461437BD465DF8047B704780B582B063
:100FF00000AF78607B680D4A93420AD14FF400102D
:101000000121FFF747FF4FF400100021FFF742FFD7
:1010100009E04FF480000121FFF73CFF4FF480000E
:101020000021FFF737FF0837BD4680BD0054004060
:1010300080B58AB000AF786039600023FB8400235C
:101040007B840423BB84574BFB617B689B88FB84B8
:10105000FB8C23F03F03FB8407F108031846FFF7DE
:101060002BFE3B69FB61FB694F4AA2FB03239B0CF0
:101070007B84FA8C7B8C1343FB847B68FA8C9A808C
:101080007B681B889BB223F001039AB27B681A80AD
:101090000023FB843B681B68444A934215D83B6895
:1010A0001B685B00FA69B2FBF3F3BB84BB8C032BB8
:1010B00001D80423BB84FA8CBB8C1343FB847B8C48
:1010C00001339AB27B681A8440E03B68DB884BF6B8
:1010D000FF72934209D13B681A6813465B001344C0
:1010E000FA69B2FBF3F3BB840EE03B681A6813465F
:1010F0009B0013449A001344FA69B2FBF3F3BB84D8
:10110000BB8C43F48043BB84BB8CC3F30B03002B29
:1011100003D1BB8C43F00103BB84BA8CFB8C13431B
:101120009BB26FEA43436FEA5343FB847B8C4FF4DB
:10113000967202FB03F31E4A82FB03129211DB1725
:10114000D31A9BB201339AB27B681A847B68FA8CFB
:101150009A837B681B889BB243F001039AB27B6839
:101160001A807B681B88FB84FB8C23F4816323F04B
:101170000203FB843B689A883B685B8913439AB2FD
:10118000FB8C1343FB847B68FA8C1A803B689A893A
:101190003B681B8913439AB27B681A812837BD4686
:1011A00080BD00BF00127A0083DE1B43A0860100D1
:1011B000D34D621080B483B000AF78600B46FB70F3
:1011C000FB78002B08D07B681B889BB243F001039F
:1011D0009AB27B681A8007E07B681B889BB223F079
:1011E00001039AB27B681A800C37BD465DF8047B18
:1011F000704700BF80B483B000AF78600B46FB70CF
:10120000FB78002B08D07B681B889BB243F480736B
:101210009AB27B681A8007E07B681B889BB223F434
:1012200080739AB27B681A800C37BD465DF8047BE8
:10123000704700BF80B483B000AF78600B46FB708E
:10124000FB78002B08D07B681B889BB243F40073AB
:101250009AB27B681A8007E07B681B889BB223F4F4
:1012600000739AB27B681A800C37BD465DF8047B28
:10127000704700BF80B483B000AF78600B46FB704E
:10128000FB78002B08D07B681B889BB243F48063FB
:101290009AB27B681A8007E07B681B889BB223F4B4
:1012A00080639AB27B681A800C37BD465DF8047B78
:1012B000704700BF80B483B000AF78600B46FB700E
:1012C000FB789AB27B681A820C37BD465DF8047BC6
:1012D000704700BF80B483B000AF78607B681B8A22
:1012E0009BB2DBB218460C37BD465DF8047B7047F5
:1012F00080B483B000AF78600B46FB701346BB70C0
:10130000BB78002B04D0FB7843F00103FB7003E0B3
:10131000FB7823F00103FB70FB789AB27B681A829A
:101320000C37BD465DF8047B704700BF80B487B0C2
:1013300000AF7860396000233B610023FB6000232D
:10134000BB600023FB757B689B8A9BB2FB607B685C
:101350001B8B9BB2BB60BB681B04BB60FA68BB689D
:10136000134323F07F433B613A693B681A403B6873
:101370009A4202D10123FB7501E00023FB75FB7D3E
:1013800018461C37BD465DF8047B704780B487B0B3
:1013900000AF786039600023FB7500233B610023B8
:1013A000FB607B68FB603B681B0F3B613B6823F085
:1013B0007F433B603B69002B03D0FB681433FB6029
:1013C00005E03B681B0C3B60FB681833FB60FB6867
:1013D0001A683B681340002B02D00123FB7501E023
:1013E0000023FB75FB7D18461C37BD465DF8047B6A
:1013F000704700BF80B483B000AF03463960FB7113
:1014000097F90730002B0BDA0D49FB7903F00F0336
:10141000043B3A68D2B21201D2B20B441A7609E008
:10142000084997F907303A68D2B21201D2B20B4498
:1014300083F800230C37BD465DF8047B704700BF7E
:1014400000ED00E000E100E080B582B000AF786020
:101450007B68B3F1807F01D3012311E00A4A7B68E6
:1014600023F07F43013B53604FF0FF300F21FFF724
:10147000C1FF054B00229A60034B07221A6000232C
:1014800018460837BD4680BD10E000E080B586B044
:1014900000AF124B00221A60114B00221A60114B50
:1014A00000221A60104B00221A600F4B00225A6073
:1014B0000E4B00221A600D4B00225A603B1D18464D
:1014C000FFF7FAFBBB680A4AA2FB03239B091846F5
:1014D000FFF7BAFF1837BD4680BD00BF3C020020B1
:1014E0004002002044020020480200205002002058
:1014F000D34D621080B483B000AF78607B68064A39
:10150000136000BF044B1B68002BFBD10C37BD469A
:101510005DF8047B704700BF3C02002080B400AF40
:10152000184B1B68002B04D0164B1B68013B154A57
:101530001360154B1B68002B04D0134B1B68013B39
:10154000114A1360114B1B68002B04D00F4B1B6812
:10155000013B0E4A13600E4B1B68002B04D00C4B52
:101560005B6801330A4A53600A4B1B68002B04D0A6
:10157000084B5B680133074A5360BD465DF8047B46
:10158000704700BF3C0200204002002044020020BF
:10159000480200205002002090B587B000AF78606C
:1015A000786800F04DFF0346BB817868524900F02F
:1015B000F7FD0346184600F043FF03469BB24F4A2F
:1015C000A2FB031292094FF47A7101FB02F29B1AFB
:1015D0007B8100237B61BB893B613B69484A82FB7D
:1015E00003129210DB17D31A3B617B6901337B61D5
:1015F0003B69002BF1D17B69FB81BB893B610023F7
:10160000FB8130E0FC897B699AB2FB89D31A9BB2DB
:10161000013B9BB29BB21BB20A20194600F074F842
:1016200003461A463B6993FBF2F3DBB23033DAB27E
:10163000344B1A557B699AB2FB89D31A9BB2013B92
:101640009BB29BB21BB20A20194600F05DF803461C
:101650001A463B6993FBF2F102FB01F29B1A3B61D4
:10166000FB890133FB81FA897B699A42CADB254AEF
:101670007B6913442E221A707B893B610023FB8116
:101680002DE07B695A1CFB89D418FB89C3F1020346
:101690009BB29BB21BB20A20194600F035F80346F4
:1016A0001A463B6993FBF2F3DBB23033DAB2154BE7
:1016B0001A55FB89C3F102039BB29BB21BB20A20ED
:1016C000194600F021F803461A463B6993FBF2F1F4
:1016D00002FB01F29B1A3B61FB890133FB81FB8911
:1016E000022BCED97B690433064A0021D154054B25
:1016F00018461C37BD4690BD00007A44D34D621099
:10170000676666667402002080B485B000AF034649
:101710000A46FB801346BB800123FB8100237B73B9
:1017200008E0FB89FA8802FB03F39BB2FB817B7B19
:1017300001337B737A7BB7F904309A42F1DBFB8982
:101740001BB218461437BD465DF8047B704700BFD6
:1017500081F0004102E000BF83F0004330B54FEA62
:1017600041044FEA430594EA050F08BF90EA020FCF
:101770001FBF54EA000C55EA020C7FEA645C7FEA62
:10178000655C00F0E2804FEA5454D4EB5555B8BF85
:101790006D420CDD2C4480EA020281EA030382EAF6
:1017A000000083EA010180EA020281EA0303362D88
:1017B00088BF30BD11F0004F4FEA01314FF4801C5B
:1017C0004CEA113102D0404261EB410113F0004F6D
:1017D0004FEA03334CEA133302D0524263EB430324
:1017E00094EA050F00F0A780A4F10104D5F1200EC2
:1017F0000DDB02FA0EFC22FA05F2801841F100011D
:1018000003FA0EF2801843FA05F359410EE0A5F1F0
:1018100020050EF1200E012A03FA0EFC28BF4CF021
:10182000020C43FA05F3C01851EBE37101F00045D7
:1018300007D54FF0000EDCF1000C7EEB00006EEBE4
:101840000101B1F5801F1BD3B1F5001F0CD349086E
:101850005FEA30004FEA3C0C04F101044FEA4452C5
:1018600012F5800F80F09A80BCF1004F08BF5FEA4C
:10187000500C50F1000041EB045141EA050130BD2C
:101880005FEA4C0C404141EB010111F4801FA4F1CF
:101890000104E9D191F0000F04BF01460020B1FA24
:1018A00081F308BF2033A3F10B03B3F120020CDA5C
:1018B0000C3208DD02F1140CC2F10C0201FA0CF03A
:1018C00021FA02F10CE002F11402D8BFC2F1200C9F
:1018D00001FA02F120FA0CFCDCBF41EA0C01904055
:1018E000E41AA2BF01EB0451294330BD6FEA04049E
:1018F0001F3C1CDA0C340EDC04F11404C4F1200289
:1019000020FA04F001FA02F340EA030021FA04F39A
:1019100045EA030130BDC4F10C04C4F1200220FAF1
:1019200002F001FA04F340EA0300294630BD21FA2F
:1019300004F0294630BD94F0000F83F4801306BFF5
:1019400081F480110134013D4EE77FEA645C18BFE9
:101950007FEA655C29D094EA050F08BF90EA020F80
:1019600005D054EA000C04BF1946104630BD91EA78
:10197000030F1EBF0021002030BD5FEA545C05D17B
:101980004000494128BF41F0004130BD14F58004BA
:101990003CBF01F5801130BD01F0004545F0FE412E
:1019A00041F470014FF0000030BD7FEA645C1ABF63
:1019B000194610467FEA655C1CBF0B46024650EA9A
:1019C000013406BF52EA033591EA030F41F40021C6
:1019D00030BD00BF90F0000F04BF0021704730B54C
:1019E0004FF4806404F132044FF000054FF0000121
:1019F00050E700BF90F0000F04BF0021704730B5E2
:101A00004FF4806404F1320410F0004548BF4042B6
:101A10004FF000013EE700BF42004FEAE2014FEA0B
:101A200031014FEA02701FBF12F07F4393F07F4FE6
:101A300081F06051704792F0000F14BF93F07F4F18
:101A4000704730B54FF4607401F0004521F000415B
:101A500020E700BF50EA010208BF704730B54FF0E1
:101A600000050AE050EA010208BF704730B511F0E6
:101A7000004502D5404261EB41014FF4806404F11E
:101A800032045FEA915C3FF4DCAE4FF003025FEAA0
:101A9000DC0C18BF03325FEADC0C18BF033202EB28
:101AA000DC02C2F1200300FA03FC20FA02F001FA82
:101AB00003FE40EA0E0021FA02F11444C1E600BF21
:101AC00070B54FF0FF0C4CF4E06C1CEA11541DBFD4
:101AD0001CEA135594EA0C0F95EA0C0F00F0DEF89F
:101AE0002C4481EA030621EA4C5123EA4C5350EA84
:101AF000013518BF52EA033541F4801143F48013D5
:101B000038D0A0FB02CE4FF00005E1FB02E506F065
:101B10000042E0FB03E54FF00006E1FB03569CF0BA
:101B2000000F18BF4EF0010EA4F1FF04B6F5007FC0
:101B300064F5407404D25FEA4E0E6D4146EB060632
:101B400042EAC62141EA55514FEAC52040EA5E50BB
:101B50004FEACE2EB4F1FD0C88BFBCF5E06F1ED865
:101B6000BEF1004F08BF5FEA500E50F1000041EB9C
:101B7000045170BD06F0004646EA010140EA020049
:101B800081EA0301B4EB5C04C2BFD4EB0C0541EA6B
:101B9000045170BD41F480114FF0000E013C00F380
:101BA000AB8014F1360FDEBF002001F0004170BDA4
:101BB000C4F10004203C35DA0C341BDC04F11404BD
:101BC000C4F1200500FA05F320FA04F001FA05F249
:101BD00040EA020001F0004221F0004110EBD37016
:101BE00021FA04F642EB06015EEA430E08BF20EA42
:101BF000D37070BDC4F10C04C4F1200500FA04F3E5
:101C000020FA05F001FA04F240EA020001F0004176
:101C100010EBD37041F100015EEA430E08BF20EAE9
:101C2000D37070BDC4F1200500FA05F24EEA020E31
:101C300020FA04F301FA05F243EA020321FA04F060
:101C400001F0004121FA04F220EA020000EBD37017
:101C50005EEA430E08BF20EAD37070BD94F0000F17
:101C60000FD101F00046400041EB010111F4801F4B
:101C700008BF013CF7D041EA060195F0000F18BFFC
:101C8000704703F00046520043EB030313F4801F38
:101C900008BF013DF7D043EA0603704794EA0C0FF2
:101CA0000CEA135518BF95EA0C0F0CD050EA410608
:101CB00018BF52EA4306D1D181EA030101F0004185
:101CC0004FF0000070BD50EA410606BF10461946AD
:101CD00052EA430619D094EA0C0F02D150EA0136B9
:101CE00013D195EA0C0F05D152EA03361CBF1046FA
:101CF00019460AD181EA030101F0004141F0FE4199
:101D000041F470014FF0000070BD41F0FE4141F41C
:101D1000780170BD70B54FF0FF0C4CF4E06C1CEA1C
:101D200011541DBF1CEA135594EA0C0F95EA0C0FD1
:101D300000F0A7F8A4EB050481EA030E52EA03358C
:101D40004FEA013100F088804FEA03334FF08055AD
:101D500045EA131343EA12634FEA022245EA1115DA
:101D600045EA10654FEA00260EF000419D4208BF8B
:101D7000964244F1FD0404F5407402D25B084FEA38
:101D80003202B61A65EB03055B084FEA32024FF4E4
:101D900080104FF4002CB6EB020E75EB030E22BF41
:101DA000B61A754640EA0C005B084FEA3202B6EB01
:101DB000020E75EB030E22BFB61A754640EA5C00B0
:101DC0005B084FEA3202B6EB020E75EB030E22BF40
:101DD000B61A754640EA9C005B084FEA3202B6EB41
:101DE000020E75EB030E22BFB61A754640EADC0000
:101DF00055EA060E18D04FEA051545EA16754FEA62
:101E000006164FEAC30343EA52734FEAC2025FEA7F
:101E10001C1CC0D111F4801F0BD141EA00014FF00E
:101E200000004FF0004CB6E711F4801F04BF0143DF
:101E30000020B4F1FD0C88BFBCF5E06F3FF6AFAEFB
:101E4000B5EB030C04BFB6EB020C5FEA500C50F18B
:101E5000000041EB045170BD0EF0004E4EEA11310E
:101E600014EB5C04C2BFD4EB0C0541EA045170BD15
:101E700041F480114FF0000E013C90E645EA060E59
:101E80008DE60CEA135594EA0C0F08BF95EA0C0F87
:101E90003FF43BAF94EA0C0F0AD150EA01347FF4CF
:101EA00034AF95EA0C0F7FF425AF104619462CE7A6
:101EB00095EA0C0F06D152EA03353FF4FDAE104609
:101EC000194622E750EA410618BF52EA43067FF45A
:101ED000C5AE50EA41047FF40DAF52EA43057FF4EA
:101EE000EBAE12E74FEA4102B2F1E04324BFB3F593
:101EF000001CDCF1FE5C0DD901F0004C4FEAC00281
:101F00004CEA5070B2F1004F40EB830008BF20F064
:101F10000100704711F0804F21D113F13872BCBF1E
:101F200001F00040704741F480114FEA5252C2F173
:101F30001802C2F1200C10FA0CF320FA02F018BFBC
:101F400040F001004FEAC1234FEAD32303FA0CFC0F
:101F500040EA0C0023FA02F34FEA4303CCE77FEA9E
:101F6000625307D150EA01331EBF4FF0FE4040F4E8
:101F70004000704701F0004040F0FE4040F4000097
:101F8000704700BF80F0004002E000BF81F00041D8
:101F900042001FBF5FEA410392EA030F7FEA226C0F
:101FA0007FEA236C6AD04FEA1262D2EB1363C1BF9F
:101FB000D218414048404140B8BF5B42192B88BF0E
:101FC000704710F0004F40F4000020F07F4018BF31
:101FD000404211F0004F41F4000121F07F4118BF51
:101FE000494292EA030F3FD0A2F1010241FA03FCF9
:101FF00010EB0C00C3F1200301FA03F100F00043E1
:1020000002D5494260EB4000B0F5000F13D3B0F1A8
:10201000807F06D340084FEA310102F10102FE2A17
:1020200051D2B1F1004F40EBC25008BF20F0010087
:1020300040EA03007047490040EB000010F4000F35
:10204000A2F10102EDD1B0FA80FCACF1080CB2EBC8
:102050000C0200FA0CF0AABF00EBC2505242184327
:10206000BCBFD0401843704792F0000F81F40001CC
:1020700006BF80F400000132013BB5E74FEA41039F
:102080007FEA226C18BF7FEA236C21D092EA030F0B
:1020900004D092F0000F08BF0846704790EA010F85
:1020A0001CBF0020704712F07F4F04D1400028BFB2
:1020B00040F00040704712F100723CBF00F5000094
:1020C000704700F0004343F0FE4040F400007047CA
:1020D0007FEA226216BF08467FEA23630146420276
:1020E00006BF5FEA412390EA010F40F48000704789
:1020F0004FF0000304E000BF10F0004348BF40422F
:102100005FEA000C08BF704743F0964301464FF06A
:1021100000001CE050EA010208BF70474FF00003C6
:102120000AE000BF50EA010208BF704711F0004307
:1021300002D5404261EB41015FEA010C02BF8446D7
:102140000146002043F0B64308BFA3F18053A3F536
:102150000003BCFA8CF2083AA3EBC25310DB01FA7D
:1021600002FC634400FA02FCC2F12002BCF1004F01
:1021700020FA02F243EB020008BF20F00100704792
:1021800002F1200201FA02FCC2F1200250EA4C00E6
:1021900021FA02F243EB020008BF20EADC7070472C
:1021A0004FF0FF0C1CEAD0521EBF1CEAD15392EA3A
:1021B0000C0F93EA0C0F6FD01A4480EA010C400216
:1021C00018BF5FEA41211ED04FF0006343EA501070
:1021D00043EA5111A0FB01310CF00040B1F5000FB2
:1021E0003EBF490041EAD3715B0040EA010062F161
:1021F0007F02FD2A1DD8B3F1004F40EBC25008BF4B
:1022000020F00100704790F0000F0CF0004C08BF68
:1022100049024CEA502040EA51207F3AC2BFD2F135
:10222000FF0340EAC250704740F400004FF0000343
:10223000013A5DDC12F1190FDCBF00F0004070477D
:10224000C2F10002410021FA02F1C2F1200200FABB
:1022500002FC5FEA310040F1000053EA4C0308BF82
:1022600020EADC70704792F0000F00F0004C02BFD3
:10227000400010F4000F013AF9D040EA0C0093F04E
:10228000000F01F0004C02BF490011F4000F013BA8
:10229000F9D041EA0C018FE70CEAD15392EA0C0F16
:1022A00018BF93EA0C0F0AD030F0004C18BF31F081
:1022B000004CD8D180EA010000F00040704790F057
:1022C000000F17BF90F0004F084691F0000F91F0FB
:1022D000004F14D092EA0C0F01D142020FD193EAC1
:1022E0000C0F03D14B0218BF084608D180EA010049
:1022F00000F0004040F0FE4040F40000704740F025
:10230000FE4040F4400070474FF0FF0C1CEAD052F2
:102310001EBF1CEAD15392EA0C0F93EA0C0F69D04E
:10232000A2EB030280EA010C49024FEA402037D0B9
:102330004FF0805343EA111143EA10130CF00040B0
:102340008B4238BF5B0042F17D024FF4000C8B42A0
:1023500024BF5B1A40EA0C00B3EB510F24BFA3EB80
:10236000510340EA5C00B3EB910F24BFA3EB910350
:1023700040EA9C00B3EBD10F24BFA3EBD10340EAAA
:10238000DC001B0118BF5FEA1C1CE0D1FD2A3FF6F0
:1023900050AF8B4240EBC25008BF20F001007047A5
:1023A0000CF0004C4CEA50207F32C2BFD2F1FF0348
:1023B00040EAC250704740F400004FF00003013A79
:1023C00037E792F0000F00F0004C02BF400010F41D
:1023D000000F013AF9D040EA0C0093F0000F01F031
:1023E000004C02BF490011F4000F013BF9D041EA53
:1023F0000C0195E70CEAD15392EA0C0F08D1420286
:102400007FF47DAF93EA0C0F7FF470AF084676E758
:1024100093EA0C0F04D14B023FF44CAF08466EE731
:1024200030F0004C18BF31F0004CCAD130F00042FF
:102430007FF45CAF31F000437FF43CAF5FE700BF57
:1024400042000ED2B2F1FE4F0BD34FF09E03B3EB1E
:10245000126209D44FEA002343F0004323FA02F04A
:1024600070474FF00000704712F1610F01D1420236
:1024700002D14FF0FF3070474FF00000704700BFAF
:10248000566F6C74616765202856293A0000000079
:1024900043757272656E7420286D41293A00000000
:0C24A000506F77657220286D57293A00B4
:1024AC000000000000000000002F000000000700EA
:1024BC00070000147F147F1400242A7F2A12006264
:1024CC006408132300364955225000000503000010
:1024DC0000001C224100000041221C000014083E98
:1024EC0008140008083E0808000000A0600000085E
:1024FC0008080808000060600000002010080402B2
:10250C00003E5149453E0000427F4000004261516F
:10251C004946002141454B31001814127F10002709
:10252C0045454539003C4A494930000171090503CC
:10253C0000364949493600064949291E00003636FD
:10254C000000000056360000000814224100001460
:10255C00141414140000412214080002015109063D
:10256C0000324959513E007C1211127C007F4949BE
:10257C004936003E41414122007F4141221C007FEF
:10258C0049494941007F09090901003E4149497AFD
:10259C00007F0808087F0000417F41000020404177
:1025AC003F01007F08142241007F40404040007FE3
:1025BC00020C027F007F0408107F003E4141413E27
:1025CC00007F09090906003E4151215E007F09196F
:1025DC0029460046494949310001017F0101003F6C
:1025EC004040403F001F2040201F003F4038403FEC
:1025FC000063140814630007087008070061514950
:10260C00454300007F41410000552A552A550000E2
:10261C0041417F0000040201020400404040404060
:10262C00000001020400002054545478007F4844F8
:10263C00443800384444442000384444487F00382F
:10264C005454541800087E0901020018A4A4A47C58
:10265C00007F080404780000447D40000040808422
:10266C007D00007F102844000000417F4000007C6A
:10267C0004180478007C0804047800384444443876
:10268C0000FC242424180018242418FC007C0804C2
:10269C00040800485454542000043F444020003C9B
:1026AC004040207C001C2040201C003C4030403C22
:1026BC00004428102844001CA0A0A07C00446454B2
:1026CC004C44000006090906000000000102030446
:0C26DC00010203040607080902040608B6
:0400000508000000EF
:00000001FF
